:400000000080002011000000310600003106000008B5044B1A6803F53F5302331A6000F027FB00BFFA46004010B5054C237833B9044B13B10448AFF300800123237010BDE7
:40004000A081FF1F00000000C4480000084B10B51BB108490848AFF300800848036803B910BD074B002BFBD0BDE81040184700BF00000000A481FF1FC4480000C880FF1F3A
:40008000000000002DE9F04F83B0009101924F4901F036FE81464E4902F0F8FD60B14D49484602F0DFFD38B149464A4802F028FB81464FF0010A20E04649484602F0E6FD6D
:4000C00060B14549484602F0CDFD38B14149484602F016FB81464FF0020A0EE03E49484602F0D4FD38B14946384802F009FB81464FF0030A01E04FF0000A002400273E4641
:40010000364D44E03946484602F0C0FDF8B10120A04002F0ABFB80460146304602F0AEFC0146284602F0ECFA83464146284602F0A5FC0146304602F0E5FA0646284B53F885
:400140002410384602F0DEFA07465D461EE00120A04002F08BFB80460146304602F08EFC0146284602F0CEFA83464146284602F085FC0146304602F0C3FA0646184B53F897
:400180002410384602F0BCFA07465D4601340F2CB8DDBAF1020F08D0BAF1030F0AD0BAF1010F09D105F1004506E005F1004506F1004601E006F10046009B03B11E60019B10
:4001C00003B11D6003B0BDE8F08F00BFDB0FC940DB0FC93FDB0F4940E4CB9640EE741B3FC848000070B582B00E461C46114602F089FA554901F084FD0546002102F028FD23
:4002000020B15149284602F07DFA0546A4F16303112B00F29180DFE803F01C848F8F8F8F8F8F8F8F8F8F8F8F688F0930002201A92846FFF727FF4549019802F06BFB31466D
:4002400002F068FB414902F05DFA02F03FFD80B273E001AA00212846FFF714FF3B49019802F058FB0146304602F054FB374902F049FA02F02BFD80B25FE03349284602F0E4
:40028000FDFB04464FF07A5102F0E2FC28B14FF08141204602F03EFB19E04FF07D51204602F0D6FC50B14FF08141204602F032FB01464FF0804002F023FA08E04FF08141C2
:4002C000204602F027FB4FF0814102F019FA1F4902F020FB0146304602F01CFB1B4902F011FA02F0F3FC80B227E01949284602F0AFFC50B11549304602F00CFB134902F03F
:4003000001FA02F0E3FC80B217E01049304602F001FB01460D4802F0F3F902F0D7FC80B20BE00A49304602F0F5FA084902F0EAF902F0CCFC80B200E00020B0F5805F01D39B
:4003400040F6FF7002B070BDDB0FC94000F0FF44DB0F49402DE9F04182B062B60121002000F042FB00F078FB0028FBD000F03EFC00F02CFA0024A0464FF07E563746732598
:4003800000F080FC88B301A800F088FC04282CD19DF80430013B032B03D8DFE803F00A040608732506E0712504E0742502E0642500E063259DF8050002F054FA06469DF84D
:4003C000060002F04FFA1A4902F058FB07469DF8070002F047FA164902F050FB014602F091F9144902F096FA80462B46424639462046FFF7F7FEC0B200F0B0F90E49304653
:4004000002F088FA0D4902F039FB0146204602F079F90446084902F02FFC20B10649204602F06EF904464FF47A7001F0B9FBA7E700007F43DB0F4940DB0FC94000007A4494
:40044000FEE700BFF0B40022174611E050F82760F3B226F0FF0608E001EB420511F812406D78A5550132013BDBB2002BF4D101370B2FEBD9F0BC70470A4B1B78DBB203F0F3
:400480000701094A11701B09013213700122074B1A70102203F683131A704422A3F21A231A707047CF0100496E5800400D51004008B50A46002102F060FC08BD38B50622B0
:4004C0001E4B1A705222A3F580731A701C4B1B78DBB21C4A13704FF4E1621B4B1A8041F25122023B1A80002419250CE0174B1B7803F0010343EA440404F003044FF4F070C0
:4005000001F0BEFB013D0DB1032CEFD115B90320FFF796FF0E4A4FF4807313800723137000230C490B704820023108701370053213700222084B1A7038BD00BF0043004061
:400540000F010049A1460040224200402542004004400040064000400140004008B502F001FC08BD38B572B6234A137843F00403137000240CE0214D630019194A00114636
:400580002A44084691882858FFF792FF0134E4B2062CF0D91A494FF09040FFF753FF194A137843F0020313701032137843F002031370082214491548FFF7D0FF0A2214497C
:4005C0001448FFF7CBFF082213491448FFF7C6FF134A137843F008031370124C61232370FFF76CFF81232370FFF746FF0E220E490E48FFF7B3FF38BDE84600400849000018
:4006000030000048035001406C0000480251004074000048F051004080000048125100402243004000480040A0430040B043004008B502F06BFB03680C2B00D1FEE7FEE7EA
:4006400008B5094B1A681044084BC31A802B02DC054B186005E002F059FB0C2303604FF0FF32104608BD00BFCC80FF1FA882FF1F08B5104E104D16E029686B68AC68002251
:4006800004E051F8040B43F8040B0432A242F8D1E868002203E0002143F8041B04328242F9D11035013E002EE6D102F035FBFFF751FEFEE7010000000C4C000008B5104A18
:4006C000104B1A60104A136843F40073136000230AE0032B03D80D4A52F8231000E00C490C4A42F8231001332F2BF2D90A4B1A780A4B1A70074A0A4B1A60FFF733FF08BD25
:400700000004FA050CED00E014ED00E000000000310600000080FF1FBC760040C080FF1F08ED00E0054A137843F0040313701032137843F004031370704700BFA8430040C0
:40074000054B1A7802F0FD021A701A7800F0020010431870704700BF28580040014B1870704700BF825B0040064B1B78C3F3810303F19243063393F82831DBB2024A1370C0
:40078000704700BF285800400A46004008B5064B1A7802F0F3021A701A7800F00C0010431870FFF7E1FF08BD2858004010B50024054B1C7001331C702046FFF7E7FF204671
:4007C000FFF7BEFF10BD00BF2858004008B5074B1B7823B9FFF7EAFF0122044B1A70FFF7A1FF6420FFF7BAFF08BD00BFBC81FF1FF8B501F04DFA0746404A137843F001037B
:4008000013701032137843F00103137001263C4B1E700225943B1D7002F5E2521B32137803F07F031370002001F0BAF9354C237803F0F9032370344A137803F0DF03137031
:40084000237833432370304601F0AAF9282001F0A7F92E4B1A7802F07F021A701A7802F0BF021A7023782B432370284601F098F9237843F0040323700024254B1C700133D2
:400880001C70384601F008FA0721172001F0A6F92049172001F08EF90721182001F09EF91D49182001F086F90721152001F096F91A49152001F07EF90721204601F08EF95B
:4008C0001749204601F076F90721304601F086F91449304601F06EF90721284601F07EF91149284601F066F907210C2001F076F90E490C2001F05EF9F8BD00BFA543004068
:400900009D6000409443004012600040F851004084600040351200001D1000003112000091110000C1110000F51100003D12000008B5214B18700023204A1370204A1370D6
:40094000204A1370204A1370204A1370204A1370204A1370204B4FF400021A604FF080721A604FF400121A6001221A6002221A6004221A6011B1012906D00BE0174A1378BE
:4009800003F0FE0313700AE0144A137843F00103137004E0114A137843F00103137003220F4B1A708022203B1A70012001F068F904220C4B1A7008BDE581FF1FE881FF1FD5
:4009C0000482FF1F0782FF1FFC81FF1F0682FF1F0982FF1FE481FF1F00E100E009600040286000401260004038B504460D46064B1B7823B9FFF7FCFE0122034B1A702946B7
:400A00002046FFF795FF38BDBD81FF1F00230A4A13700A4A13700A4A13700A4A13700A4A13700A4A13700A4A13700322094B1A708022203B1A707047E881FF1F0482FF1F05
:400A40000782FF1FFC81FF1F0682FF1F0982FF1FE481FF1F28600040014B1878704700BF0782FF1F00EB40008300024A13445878704700BF0C82FF1F431EDBB2072B0BD85B
:400A8000064B00011A18185C00F00F00537843EA0020023880B2704700207047FC5F0040431EDBB2072B0BD8420002449300054A134400225A705A79D2B20001024B1A54CF
:400AC000704700BF0C82FF1FFE5F004070B5D9B1054614460E46C8B1082819D8FFF7CCFFA04203D22846FFF7C7FF0446002305E02901094A525CF25401339BB2A342F7D360
:400B00002846FFF7CDFF04E0002402E0002400E00024204670BD00BF7860004010B4FF2400230EE0094AD25C02EB42029100084A11448A7AD2B2824201D11C46022301334E
:400B4000DBB2012BEED9204610BC7047D481FF1F0C82FF1F10B5204C2079FFF7DFFF237813F0800F0ED06378DBB2212B2FD11B4B07221A80C0EBC000194A1044586000F09D
:400B8000BBFA10BD144B5B78DBB2202B02D0222B10D01EE0114A07231380C0EBC00310490B4453600F4A135C43F00103135400F0CBFA10BD084B9B780B4A22F81030094A7B
:400BC000135C43F00203135400F054F910BD002010BD002010BD00BF00600040F081FF1FD080FF1FCC81FF1FE081FF1F10B500241F4B1C701F4B1C705C700AE01E4B185D54
:400C0000C0B2431EDBB2072B01D8FFF749FF0134E4B2012CF2D9194B1B7813F0FF0F1AD0154B1B7813F0FF0F17D0154B1B7813F0FF0F14D0114B1B78DBB2082B11D80E4B92
:400C40001B78DBB2082B0ED80D4B1B78DBB2082B0BD8002010BD012010BD012010BD012010BD012010BD012010BD012010BD00BFBE81FF1FCC81FF1FD881FF1FD081FF1FBF
:400C8000D481FF1F08B5034B1B78034AD05CFFF7E9FE08BDBE81FF1FD881FF1F08B5084B1B78084AD35CDBB203EB43018A0006490A44128992B201461846FFF707FF08BDE5
:400CC000BE81FF1FD881FF1F0C82FF1FC37803F0030390F9020000280FDA032B06D002F001030B48C15442F001020EE0C2F380030848C15442F0040207E0032B05D0C2F3AB
:400D000040030548C15442F002021046704700BFD081FF1FD481FF1FD881FF1F1D4B19781D4A13889BB20B449BB2138000220FE01A494B681B78DBB2194883544B680133D6
:400D40004B600132D2B20B889BB2013B9BB20B80124B1B889BB20BB1072AE9D90D4B1B78DBB2082B00D05AB10E490B7883F080030B700F210C4B197002210C4B197004E059
:400D8000022309490B7009490B70094B1A70014B1A707047E481FF1FE681FF1FF081FF1F006000407A82FF1F0582FF1FE881FF1F0882FF1F0222074B1A708022064B1A7067
:400DC0000F22064B1A700023054A1370054A137001207047E881FF1F7A82FF1F0582FF1FE481FF1F0882FF1F08B5FFF797FF08BD10B4194B197801F00F010239C9B2174AF8
:400E000013889BB20B449BB21380002011E0144A5468144B1B5CDBB223705368013353600130C0B20139C9B213889BB2013B9BB213800B4B1B889BB20BB10029E7D10A4B44
:400E400019700A4A137883F0800313700B22084B1A7010BC704700BF29600040E681FF1FF081FF1F006000400882FF1F7A82FF1F0582FF1F0623064A1370064A13708022F0
:400E8000054B1A700022054B1A700120704700BFE881FF1F0582FF1F7A82FF1F0882FF1F064B9B6843B1054B9A6810709A6804490988518000229A60704700BFF081FF1FEB
:400EC000E681FF1F08B5134B1A78D2B21A701B78DBB213F0800F02D00F4A137008BD0220FFF7DEFF0D4B1B7803F06003202B05D0402B06D043B900F093FC06E000F0D0FED7
:400F000003E000F037FE00E0002010B90322024B1A7008BD286000400582FF1F0060004008B5094B1978094A13889BB20B449BB213800022064B1A700120FFF7B1FF03221D
:400F4000044B1A7008BD00BFE481FF1FE681FF1FE881FF1F0582FF1F08B50B4B1B78DBB2042B06D0062B07D0022B0BD1FFF7D8FF08BDFFF73DFF08BD0320FFF791FF032240
:400F8000024B1A7008BD00BFE881FF1F0582FF1F08B50022044B1A700120FFF781FF0322024B1A7008BD00BFE881FF1F0582FF1F08B50B4B1B7813F0FF0F07D0084A137844
:400FC00043F0800307490B70002313700022064B1A700120FFF764FF0322044B1A7008BD0682FF1F08600040E881FF1F0582FF1F08B5094B1B78DBB2042B06D0062B07D0D8
:40100000022B07D1FFF7F0FE08BDFFF7C1FF08BDFFF7CEFF08BD00BFE881FF1F08B5284B1B78DBB213F0100F48D013F0800F0CD003F00F03012B16D1FFF744FF214B1B7871
:4010400013F0800F11D1012312E013F0400F03D0FFF7CEFF01230BE013F0200F07D0FFF77BFF012304E0002302E0002300E0002323B3134B1B7813F0800F1FD1124B1B780A
:40108000124A12781343124A13701278D2B2934214D10C4B1B78DBB2094A127812F0800F07D1084B1B78DBB2054A1370137803F00F03044A1278D2B29342EAD108BD00BF4B
:4010C000286000400582FF1F7A82FF1F0882FF1F296000400022064B1A80064B9B682BB1044A916800230B7092685380704700BFE681FF1FF081FF1F08B50F4B1B889BB278
:4011000013B9FFF757FE15E002220C4B1A7000220B4B1A70FFF7DEFF0A4AD179937943EA0123054A128892B2934201D2024A1380FFF7F4FD012008BDF081FF1FE881FF1F37
:401140007A82FF1F0060004008B504220B4B1A7080220B4B1A70FFF7BDFF0A4AD179937943EA0123084A128892B2934201D2064A13800B22054B1A70012008BDE881FF1F94
:401180007A82FF1F00600040F081FF1F0582FF1F0122094B1A700F3B9B7C084B1B7B03F00303934204D0054AD37B83F08003D3730122024B5A7370470B6000400C82FF1F30
:4011C00002220A4B1A700F3B93F82230084B1B7E03F00303012B04D0054AD37E83F08003D3760122024B5A76704700BF0B6000400C82FF1F04220C4B1A700F3B93F83230B6
:401200000A4B93F8243003F00303012B06D0074A92F8273083F0800382F827300122034B83F82520704700BF0B6000400C82FF1F704700BF08B5FFF7E9FB08BD08B500F009
:40124000A5FC08BD70B588B0054603AC174E0FCE0FC43368237035B322232B7003236B7001A800F0D3FC002402231AE008AA224412F81C2C08A901EB121111F8141CE9545A
:40128000581C00212954981C02F00F0208AE324412F8142C2A54DA1CA9540134E4B20433DBB2212BE2D908B070BD00BF3449000010B401233EE019461A010C2421488454D6
:4012C00003EB4300820020480244527912F0FF0F13D003EB430082001B480244127912F0800F04D01801194A024494700AE01801164A02440820907004E01801134A02444C
:40130000802090704800084482000F480244D488E4B208010B4901448C71D088C0F30720C871D088C0B20871D288C2F307224A710133DBB2082BBED9FF22054B1A7010BCD6
:40134000704700BF706000400C82FF1FFC5F00400A600040074B1A78074B03EBC2035B681A7C824204D9C000103018444068704700207047E581FF1F48490000F8B5404B34
:401380001B7813F0FF0F79D03D4B18780138C0B2FFF7E0FF047AC2683A4B1878C0B200236AE01178884264D13749095CC9B25578A9425ED1917801F07F01D67806F0030676
:4013C000DFF8C8E04D000D44AF000EEB07054FF0000C85F803C092F802C085F804C092F803C00EF807C097882F8192F90250002D0DDA012E01D1072700E00D274E000E4447
:40140000B500224E35446F7101266E700CE0012E01D1052700E009274E000E44B5001B4E35446F7100266E70DFF868E00F010EEB07060125B57001FA05F529448D0013491A
:4014400029440D89C5F307250EF807500D89EDB27570CE88F6B20E4D3D44AE71CE88C6F30726EE71CE88F6B22E71C988C1F30721697108320133DBB2A34292D3F8BD00BF1D
:401480000782FF1FFC81FF1F7882FF1F0C82FF1F70600040FC5F0040034B1A78034B03EBC2035868704700BFE581FF1F4849000008B5084B18780138C0B2FFF74BFF30B1E3
:4014C00042681279023200EBC203586808BD002008BD00BF0782FF1F2DE9F047002310E0724D5900CA189600AC190022AA55A270E2702281A272627034462C44627101334F
:40150000DBB2082BECD940B90AE000226849CA546849CA540133DBB200E00023012BF4D9654B1B7813F0FF0F00F0BD80624B18780138C0B2FFF70EFF80464368DB7913F092
:40154000400F05D05D4A137843F00103137004E05A4A137803F0FE03137098F808704FF0000A01266FE0D8F80C50002467E0AB7803F07F039E425FD1314606EB460083009A
:401580004A4803441B899BB2A888834206D206EB460E4FEA8E03454A134418812B784448C35CDBB26878834246D195F802C0DFF8FCE04B000B4498000EEB000383F804C000
:4015C000EB780EF80030EB7803F0030395F90200002813DA012B02D14FF0070901E04FF00D09DFF8C8E04B0003EB010C4FEA8C00704480F805900121417012E0012B02D1BE
:401600004FF0050901E04FF00909DFF8A0E04B0003EB010C4FEA8C00704480F8059000214170AB790A2B01D0022B05D1524631462846FFF74BFB824608350134E4B2BC4282
:4016400095D30136F6B2082E8DD9D8F80C0000220CE0837803F07F0310F8084B03EB43039900124B19448C720132D2B2BA42F0D3FFF71EFF124B1860002301210FE00B4D63
:401680004A00501884002C44E380228992B213449BB203F0010213449BB20131C9B20829EDD9FFF705FEBDE8F08700BF0C82FF1F7882FF1FEC81FF1F0782FF1F0982FF1FDD
:4016C0000082FF1F08B5154B1B7903F07F035A1ED2B2072A20D8590019448A0010490A44917841F0010191700021D170517841F002015170127912F0800F05D01B01094A5B
:401700001A448D23937004E01B01064A1A4489239370FFF7AFFB08BD002008BD006000400C82FF1FFC5F0040274B1B7903F07F035A1ED2B2072A44D810B5590019448A0041
:4017400022490A44917801F0FE0191700021D1701F4C1801215C01F07F012154517801F0FD015170127912F0800F13D003EB43018A0016490A445278D2B2012A04D12246D6
:4017800002440C23937019E01B01114A1A440D23937013E003EB43018A000C490A445278D2B2012A05D11B01094A1A440823937004E01B01064A1A4409239370FFF75AFBEC
:4017C00010BD0020704700BF006000400C82FF1FFC5F004010B50E4B1C79E4B20D4B18780138C0B2FFF7B6FD43681B799C4201D9022C0AD8084A135DDBB208490B55044BC4
:401800009B78DBB21355012010BD002010BD00BF006000400782FF1F7882FF1FEC81FF1F10B59C4B1B78DBB200219B4A118013F0800F00F0AD80974A5278D2B20A2A00F2B5
:401840007481DFE812F06900720172017201720172010B007201920072019A008D4BDB78DBB2012B09D1FFF717FE42688A4B5A6012221A80FFF740FC10BD864BDB78DBB265
:40188000022B13D1834B9878FFF764FD002800F04E814268804B5A605A68D1785A68927842EA01221A80FFF727FC10BD794BDB78DBB2032B05D02CE00A7811440133DBB2DB
:4018C00001E000237549734A9278D2B2934203D20A7812F0FF0FEFD16E4B9B7813F0FF0F0BD06C4B9B78DBB26D4A127C934204D16C4C2046FFF7A6FC21460B7813F0FF0F30
:4019000000F017810B78644A13805160FFF7F4FB10BD00F0C5F910BD13F0030317D0022B40F009815C490B805A4B1B7903F07F0303EB43039A005C4B1A449278D2B25B4BC1
:401940001A7000225A704B60FFF7D6FB10BD524902230B80564B1A78D2B2544B1A7000225A704B60FFF7C8FB10BD4B4B01221A80504A5A60FFF7C0FB10BD474A01231380FD
:40198000444B1B794C490B445360FFF7B5FB10BD404A5278013A0A2A00F2CF80DFE812F04C00CD009800CD000B00CD00CD00CD001300CD003000374B9B78DBB23F4A1370FF
:4019C000FFF758FA10BD334B9B7803F0FF041BB1601EC0B2FFF7BEFC04B110B9002C40F0AE80344B1B78DBB29C4206D0314B1C700120334B1870FFF76FFDFFF73BFA10BDFB
:401A0000FFF7E8FE002800F09C80224A1379DBB21279D2B22B490A702B4AD25CD2B22649CB5CDBB29A4204D00122254B1A70FFF7A5FCFFF71FFA10BD03F00303012B17D07E
:401A40004BB1022B7FD1134B9B7813F0FF0F7CD1FFF76AFE10BD0F4B9B78DBB2012B76D1134A137803F0FD031370FFF703FA10BD084B1B79DBB2012B6BD8064B98781B7990
:401A8000DBB21249CA5C22EA0002CA54FFF7F2F910BD00BF00600040F081FF1FB0490000944A00008082FF1F0C82FF1FC081FF1F0982FF1F0782FF1F7882FF1F0682FF1F40
:401AC0000482FF1FFC81FF1FEC81FF1F7C82FF1F03F00303012B17D04BB1022B3BD1224B9B7813F0FF0F38D1FFF7ECFD10BD1E4B9B78DBB2012B32D11C4A137843F0020318
:401B00001370FFF7B7F910BD174B1B79DBB2012B27D8154B98781B79DBB21549CA5C22EA0002CA54FFF7A6F910BD002010BD002010BD002010BD002010BD002010BD00209D
:401B400010BD002010BD002010BD002010BD002010BD002010BD002010BD002010BD002010BD002010BD00BF006000400982FF1F7C82FF1F044B1B7813F0800F01D0024B8D
:401B80005B780020704700BF00600040024B1878C0F38010704700BF8F45004001BE704708B5034B1B7A00FB03F000F069F808BDEC80FF1F70B504460E46074B1D681F28ED
:401BC00002D90020FFF7EAFF04F01F04103455F8240045F8246070BD08ED00E038B504460D46072902D90020FFF7D8FF1F2C02D90020FFF7D3FF04F01F0000F1604000F553
:401C000064406D01EDB2057038BD00BF134B1B78DBB20360124A127843EA02230360114A127843EA024303600F4A127843EA026303600E4B1B78DBB243600D4A127843EA92
:401C4000022343600B4A127843EA024343600A4A127843EA02634360704700BF0301004904010049EC46004002010049010100490001004905010049060100490000000092
:401C80000230800803D000BF01380046FCD17047EFF3108072B6704780F31088704700BF08B5144B1B7803F00303012B02D0022B04D00FE00F4B1B79DBB20CE00D4B1B791A
:401CC00003F07F0303EB43039A000B4B1A44937ADBB200E00023022B07D8084A1268D35C022B04D1FEF736FF08BD002008BD002008BD00BF006000400C82FF1F0082FF1FE3
:401D00002DE9F0438BB006460C4600F057F8294B054693F900707B1C31D02146204600F0BFFF60BB3146304600F0BAFF804630BB0021204600F082FF08B31F4A012330465C
:401D4000CDF820800192009300F020FA804689462046CDE9028900F019FACDE9040197B9CDE90689684600F0ABF8B0B1089BDBB9DDE9060100F070FC0BB0BDE8F0832846FC
:401D80000BB0BDE8F083002200231046194600F07BFB022FCDE90601E4D100F0B7FF21230360089B002BE3D000F0B0FF089B0360DEE700BFFC80FF1FA84A000070B531F084
:401DC000004638D0024600F000446240B2F1FF4F31DAB6F1FF4F2EDCB24232DB36D0B2F5000F0B4637DA100200286FF07D0104DD4000002801F1FF31FADCB6F5000F38DB38
:401E0000F5157F3D11F17E0F2EDBC2F3160242F4000215F17E0F21DBC3F3160343F40003491B02E012D042000139D01A51B10028F8DA5200F8E700F06DFD014600F01EFE3F
:401E400070BD70BDD31A48BF1346D3B91A4AE00F52F8200070BDD1157F39CEE76FF07D035B1B06FA03F3DBE76FF07D00401A8240CFE730026FF07D05400005F1FF35FBD5EA
:401E8000C0E70E4A934204DC5B00934205F1FF35FADD15F17E0F06DA6FF07D00401B034143EA040070BDA3F50003234305F17F0043EAC05070BD00BFB04A0000FFFF7F00DB
:401EC0000020704781F0004102E000BF83F0004330B54FEA41044FEA430594EA050F08BF90EA020F1FBF54EA000C55EA020C7FEA645C7FEA655C00F0E2804FEA5454D4EB80
:401F00005555B8BF6D420CDD2C4480EA020281EA030382EA000083EA010180EA020281EA0303362D88BF30BD11F0004F4FEA01314FF4801C4CEA113102D0404261EB410154
:401F400013F0004F4FEA03334CEA133302D0524263EB430394EA050F00F0A780A4F10104D5F1200E0DDB02FA0EFC22FA05F2801841F1000103FA0EF2801843FA05F35941C3
:401F80000EE0A5F120050EF1200E012A03FA0EFC28BF4CF0020C43FA05F3C01851EBE37101F0004507D54FF0000EDCF1000C7EEB00006EEB0101B1F5801F1BD3B1F5001F57
:401FC0000CD349085FEA30004FEA3C0C04F101044FEA445212F5800F80F09A80BCF1004F08BF5FEA500C50F1000041EB045141EA050130BD5FEA4C0C404141EB010111F431
:40200000801FA4F10104E9D191F0000F04BF01460020B1FA81F308BF2033A3F10B03B3F120020CDA0C3208DD02F1140CC2F10C0201FA0CF021FA02F10CE002F11402D8BFE4
:40204000C2F1200C01FA02F120FA0CFCDCBF41EA0C019040E41AA2BF01EB0451294330BD6FEA04041F3C1CDA0C340EDC04F11404C4F1200220FA04F001FA02F340EA0300EA
:4020800021FA04F345EA030130BDC4F10C04C4F1200220FA02F001FA04F340EA0300294630BD21FA04F0294630BD94F0000F83F4801306BF81F480110134013D4EE77FEAE7
:4020C000645C18BF7FEA655C29D094EA050F08BF90EA020F05D054EA000C04BF1946104630BD91EA030F1EBF0021002030BD5FEA545C05D14000494128BF41F0004130BD47
:4021000014F580043CBF01F5801130BD01F0004545F0FE4141F470014FF0000030BD7FEA645C1ABF194610467FEA655C1CBF0B46024650EA013406BF52EA033591EA030F9D
:4021400041F4002130BD00BF90F0000F04BF0021704730B54FF4806404F132044FF000054FF0000150E700BF90F0000F04BF0021704730B54FF4806404F1320410F00045DC
:4021800048BF40424FF000013EE700BF42004FEAE2014FEA31014FEA02701FBF12F07F4393F07F4F81F06051704792F0000F14BF93F07F4F704730B54FF4607401F0004594
:4021C00021F0004120E700BF50EA010208BF704730B54FF000050AE050EA010208BF704730B511F0004502D5404261EB41014FF4806404F132045FEA915C3FF4DCAE4FF0A8
:4022000003025FEADC0C18BF03325FEADC0C18BF033202EBDC02C2F1200300FA03FC20FA02F001FA03FE40EA0E0021FA02F11444C1E600BF70B54FF0FF0C4CF4E06C1CEA78
:4022400011541DBF1CEA135594EA0C0F95EA0C0F00F0DEF82C4481EA030621EA4C5123EA4C5350EA013518BF52EA033541F4801143F4801338D0A0FB02CE4FF00005E1FBA0
:4022800002E506F00042E0FB03E54FF00006E1FB03569CF0000F18BF4EF0010EA4F1FF04B6F5007F64F5407404D25FEA4E0E6D4146EB060642EAC62141EA55514FEAC520CC
:4022C00040EA5E504FEACE2EB4F1FD0C88BFBCF5E06F1ED8BEF1004F08BF5FEA500E50F1000041EB045170BD06F0004646EA010140EA020081EA0301B4EB5C04C2BFD4EB43
:402300000C0541EA045170BD41F480114FF0000E013C00F3AB8014F1360FDEBF002001F0004170BDC4F10004203C35DA0C341BDC04F11404C4F1200500FA05F320FA04F0C9
:4023400001FA05F240EA020001F0004221F0004110EBD37021FA04F642EB06015EEA430E08BF20EAD37070BDC4F10C04C4F1200500FA04F320FA05F001FA04F240EA02009D
:4023800001F0004110EBD37041F100015EEA430E08BF20EAD37070BDC4F1200500FA05F24EEA020E20FA04F301FA05F243EA020321FA04F001F0004121FA04F220EA0200FA
:4023C00000EBD3705EEA430E08BF20EAD37070BD94F0000F0FD101F00046400041EB010111F4801F08BF013CF7D041EA060195F0000F18BF704703F00046520043EB03033B
:4024000013F4801F08BF013DF7D043EA0603704794EA0C0F0CEA135518BF95EA0C0F0CD050EA410618BF52EA4306D1D181EA030101F000414FF0000070BD50EA410606BF27
:402440001046194652EA430619D094EA0C0F02D150EA013613D195EA0C0F05D152EA03361CBF104619460AD181EA030101F0004141F0FE4141F470014FF0000070BD41F0D4
:40248000FE4141F4780170BD70B54FF0FF0C4CF4E06C1CEA11541DBF1CEA135594EA0C0F95EA0C0F00F0A7F8A4EB050481EA030E52EA03354FEA013100F088804FEA033336
:4024C0004FF0805545EA131343EA12634FEA022245EA111545EA10654FEA00260EF000419D4208BF964244F1FD0404F5407402D25B084FEA3202B61A65EB03055B084FEA14
:4025000032024FF480104FF4002CB6EB020E75EB030E22BFB61A754640EA0C005B084FEA3202B6EB020E75EB030E22BFB61A754640EA5C005B084FEA3202B6EB020E75EB9C
:40254000030E22BFB61A754640EA9C005B084FEA3202B6EB020E75EB030E22BFB61A754640EADC0055EA060E18D04FEA051545EA16754FEA06164FEAC30343EA52734FEAED
:40258000C2025FEA1C1CC0D111F4801F0BD141EA00014FF000004FF0004CB6E711F4801F04BF01430020B4F1FD0C88BFBCF5E06F3FF6AFAEB5EB030C04BFB6EB020C5FEA76
:4025C000500C50F1000041EB045170BD0EF0004E4EEA113114EB5C04C2BFD4EB0C0541EA045170BD41F480114FF0000E013C90E645EA060E8DE60CEA135594EA0C0F08BF33
:4026000095EA0C0F3FF43BAF94EA0C0F0AD150EA01347FF434AF95EA0C0F7FF425AF104619462CE795EA0C0F06D152EA03353FF4FDAE1046194622E750EA410618BF52EAEC
:4026400043067FF4C5AE50EA41047FF40DAF52EA43057FF4EBAE12E74FEA4102B2F1E04324BFB3F5001CDCF1FE5C0DD901F0004C4FEAC0024CEA5070B2F1004F40EB830030
:4026800008BF20F00100704711F0804F21D113F13872BCBF01F00040704741F480114FEA5252C2F11802C2F1200C10FA0CF320FA02F018BF40F001004FEAC1234FEAD32300
:4026C00003FA0CFC40EA0C0023FA02F34FEA4303CCE77FEA625307D150EA01331EBF4FF0FE4040F44000704701F0004040F0FE4040F40000704700BF80F0004002E000BFD8
:4027000081F0004142001FBF5FEA410392EA030F7FEA226C7FEA236C6AD04FEA1262D2EB1363C1BFD218414048404140B8BF5B42192B88BF704710F0004F40F4000020F0C6
:402740007F4018BF404211F0004F41F4000121F07F4118BF494292EA030F3FD0A2F1010241FA03FC10EB0C00C3F1200301FA03F100F0004302D5494260EB4000B0F5000F7A
:4027800013D3B0F1807F06D340084FEA310102F10102FE2A51D2B1F1004F40EBC25008BF20F0010040EA03007047490040EB000010F4000FA2F10102EDD1B0FA80FCACF13E
:4027C000080CB2EB0C0200FA0CF0AABF00EBC25052421843BCBFD0401843704792F0000F81F4000106BF80F400000132013BB5E74FEA41037FEA226C18BF7FEA236C21D0B3
:4028000092EA030F04D092F0000F08BF0846704790EA010F1CBF0020704712F07F4F04D1400028BF40F00040704712F100723CBF00F50000704700F0004343F0FE4040F4B6
:40284000000070477FEA226216BF08467FEA23630146420206BF5FEA412390EA010F40F4800070474FF0000304E000BF10F0004348BF40425FEA000C08BF704743F0964320
:4028800001464FF000001CE050EA010208BF70474FF000030AE000BF50EA010208BF704711F0004302D5404261EB41015FEA010C02BF84460146002043F0B64308BFA3F13B
:4028C0008053A3F50003BCFA8CF2083AA3EBC25310DB01FA02FC634400FA02FCC2F12002BCF1004F20FA02F243EB020008BF20F00100704702F1200201FA02FCC2F120024D
:4029000050EA4C0021FA02F243EB020008BF20EADC7070474FF0FF0C1CEAD0521EBF1CEAD15392EA0C0F93EA0C0F6FD01A4480EA010C400218BF5FEA41211ED04FF00063EE
:4029400043EA501043EA5111A0FB01310CF00040B1F5000F3EBF490041EAD3715B0040EA010062F17F02FD2A1DD8B3F1004F40EBC25008BF20F00100704790F0000F0CF008
:40298000004C08BF49024CEA502040EA51207F3AC2BFD2F1FF0340EAC250704740F400004FF00003013A5DDC12F1190FDCBF00F000407047C2F10002410021FA02F1C2F138
:4029C000200200FA02FC5FEA310040F1000053EA4C0308BF20EADC70704792F0000F00F0004C02BF400010F4000F013AF9D040EA0C0093F0000F01F0004C02BF490011F4B9
:402A0000000F013BF9D041EA0C018FE70CEAD15392EA0C0F18BF93EA0C0F0AD030F0004C18BF31F0004CD8D180EA010000F00040704790F0000F17BF90F0004F084691F02C
:402A4000000F91F0004F14D092EA0C0F01D142020FD193EA0C0F03D14B0218BF084608D180EA010000F0004040F0FE4040F40000704740F0FE4040F4400070474FF0FF0C78
:402A80001CEAD0521EBF1CEAD15392EA0C0F93EA0C0F69D0A2EB030280EA010C49024FEA402037D04FF0805343EA111143EA10130CF000408B4238BF5B0042F17D024FF48A
:402AC000000C8B4224BF5B1A40EA0C00B3EB510F24BFA3EB510340EA5C00B3EB910F24BFA3EB910340EA9C00B3EBD10F24BFA3EBD10340EADC001B0118BF5FEA1C1CE0D12F
:402B0000FD2A3FF650AF8B4240EBC25008BF20F0010070470CF0004C4CEA50207F32C2BFD2F1FF0340EAC250704740F400004FF00003013A37E792F0000F00F0004C02BF6C
:402B4000400010F4000F013AF9D040EA0C0093F0000F01F0004C02BF490011F4000F013BF9D041EA0C0195E70CEAD15392EA0C0F08D142027FF47DAF93EA0C0F7FF470AF8B
:402B8000084676E793EA0C0F04D14B023FF44CAF08466EE730F0004C18BF31F0004CCAD130F000427FF45CAF31F000437FF43CAF5FE700BF4FF0FF3C06E000BF4FF0010C82
:402BC00002E000BF4FF0010C4DF804CD4FEA40024FEA41037FEA226C18BF7FEA236C11D001B052EA530C18BF90EA010F58BFB2EB030088BFC81738BF6FEAE17018BF40F001
:402C0000010070477FEA226C02D15FEA402C05D17FEA236CE4D15FEA412CE1D05DF8040B704700BF844608466146FFE70FB5FFF7C9FF002848BF10F1000F0FBD4DF808ED2D
:402C4000FFF7F4FF0CBF012000205DF808FB00BF4DF808EDFFF7EAFF34BF012000205DF808FB00BF4DF808EDFFF7E0FF94BF012000205DF808FB00BF4DF808EDFFF7D2FF29
:402C800094BF012000205DF808FB00BF4DF808EDFFF7C8FF34BF012000205DF808FB00BF4FEA40024FEA41037FEA226C02D15FEA402C08D17FEA236C02D15FEA412C02D183
:402CC0004FF0000070474FF00100704742000ED2B2F1FE4F0BD34FF09E03B3EB126209D44FEA002343F0004323FA02F070474FF00000704712F1610F01D1420202D14FF0FF
:402D0000FF3070474FF00000704700BF014B1868704700BF6081FF1F0E4B70B51E460E4C0025E41AA410A54204D056F8253098470135F8E701F058FF084B094C1E46E41A00
:402D4000A4100025A54204D056F8253098470135F8E770BDF44B0000F44B0000F44B0000FC4B000010B5431E0A44914204D011F8014B03F8014FF8E710BD0346024493422C
:402D800002D003F8011BFAE770472DE9F04788B0149F002B1E461299B8BF03F1004327F02007B6BF1E4600232D23462F1446109DDDF84CA00B7003D0452F03D1013501E0FE
:402DC000032300E0022307AA049206AA03928DE828042246334600F0B7FB472F804602D1119BDB0728D5462F08EB050911D198F80030302B0AD1002200232046314601F0FD
:402E0000F1FC18B9C5F10105CAF80050DAF800309944002200232046314601F0E3FC08B9302202E0CDF81C9006E0079B994503D9591C07911A70F8E74046079B159AC8EB8D
:402E40000303136008B0BDE8F087034673B50029B8BF494203F8022BB4BF2D222B22092942701ADD0DF1070216460A2591FBF5F405FB1411092C01F1300102F8011D214654
:402E8000F4DC3031541E02F8011CB4421A460AD214F8012B03F8012BF7E71A463024214402F8024B5970101A02B070BD2DE9F04F91B00C46DDF8688016461F46054601F015
:402EC000DBF803681846099300F0AAFA00230E93D8F800300A90073323F0070303F1080294F81890D4F800B0C8F80020D3E90023C4E91223D4F84CA0D4F848802AF0004359
:402F00000B934FF0FF32A74B40460B9901F09CFCA0B94FF0FF32A34B40460B9901F076FC60B9002200234046514601F065FC10B12D2384F843309C4B9C4A0AE042465346F5
:402F40004046514601F080FC002800F09281984B984AB9F1470F8CBF90469846032323612BF0040323604FF0000A3DE0B9F1670F00F08A81B9F1470F00F0868123600193FA
:402F8000636800210DF13302059002920093424653460691CDF81090CDF80CE02846FFF7F4FE09F0DF03472B804600F08481B9F1650F0D9900F28D8101394A4604F1500037
:402FC0000D91FFF742FF0E9A82468318012A236100F37C812268D10700F178819DF8333013B12D2384F84330009733460FAA2146284600F09FF9013002D14FF0FF3096E1FC
:4030000023685A0501D4236965E0B9F1650F40F2D580D4E912010022002301F0E3FB78B30123654A31462846B8470130E5D00E9B0D9A9A420BDB2368D80708D423689B072A
:4030400040F111814FF0000804F1190906E10A9B099A31462846B8470130CED04FF0000804F11A090E9B013B9845E7DA01234A4631462846B8470130BFD008F10108F1E739
:403080000D9B002B29DC01234B4A31462846B8470130B2D00D9B23B90E9B13B92368D907CCD50A9B099A31462846B8470130A4D04FF0000904F11A0A0D9B5B42994509DAAB
:4030C0000123524631462846B847013095D009F10109F1E70E9B4246A7E00E9AA36D9A42A8BF1A46002A914606DC4FF0000A29EAE97904F11A0B11E0134631464246284639
:40310000B8470130F1D178E701235A4631462846B84701303FF471AF0AF1010AA36DC9EB03029245F0DB08EB03090D9A0E9B9A420FDB2368DA070CD40E9B0D9A9844C9EB60
:4031400008089B1A9845A8BF9846B8F1000F08DC0FE00A9B099A31462846B8470130EBD14BE743464A4631462846B84701303FF444AF4FF0000928EAE87804F11A0A09E082
:403180000123524631462846B84701303FF435AF09F101090D9A0E9B9B1AC8EB03039945EEDB4BE7FFFFEF7FBA4A0000BE4A0000C24A0000C64A0000CA4A00000E9A012A11
:4031C00001DCDB0738D50123424631462846B84701303FF412AF0A9B099A31462846B84701303FF40AAFD4E912010022002301F0F9FA20B14FF0000804F11A090EE00E9B45
:4032000008F10102013B19E001234A4631462846B84701303FF4F1AE08F101080E9B013B9845F1DB534604F1500231462846B84701307FF403AFE0E64246012331462846C1
:40324000B8470130EED1D8E601234A4631462846B84701303FF4D1AE08F10108E3680F9A9B1A9845F0DBE0680F9B9842B8BF18465DE062680EA8531C0DF1340E4BF48063A4
:403280007FF474AE062201E012B90122626075E6002106910DF133018DE80C00236005904246CDF81090CDF80CE0029153462846FFF76BFD80460D9BD81C02DB626893426E
:4032C0001DDDA9F102095FFA89F970E60133236184E6B9F1660F14D10029636807DD216113B92268D2071DD501330B4419E013B92268D00701D5023313E0012311E04FF062
:4033000067090D9B0E9A934205DB22682361D10708D5013305E0002BD4BFC3F102030123134423610D9B4FF0000AA36556E611B0BDE8F08F2DE9F04791461F460A698B68BD
:4033400006469342B8BF1346C9F8003091F843200C46DDF8208012B10133C9F800302368990642BFD9F800300233C9F80030256815F0060510D104F1190A07E00123524645
:4033800039463046C04701301AD00135E368D9F800209B1A9D42F1DB94F843302268003318BF012392060FD5E118302081F843005A1C94F845102244023382F8431003E04A
:4033C0004FF0FF30BDE8F08704F1430239463046C0470130F4D02268D9F80050E36802F00602042A08BF5D1B2269A3680CBF25EAE57500259342C4BF9B1AED184FF0000972
:403400001A344D4509D00123224639463046C0470130D5D009F10109F3E70020BDE8F087034613F8012B002AFBD1181A013870472DE9F74F03690C6980469C427FDC013C4A
:4034400001F114074FEA840E00F1140606EB0E0357F82450019356F824300135B3FBF5F507EB0E09C5B34FF0000A3846B446D34650F8043B9AB205FB02A21B0C4FEA124A12
:4034800005FB03A392B2C2EB0B0BBCF800204FEA134A5A441FFA83FBDCF800308145CBEB134303EB224392B242EA03424FEA234B4CF8042BDCD256F80E306BB9019B043B8F
:4034C0009E421A4602D3C8F8104005E01268043B002AF8D1013CF3E7404600F0E6FF00282BDB304601354FF0000E57F8042B036891B2C1EB0E0E120C99B27144C2EB134368
:4035000003EB214389B24FEA234EB94541EA034340F8043BE9D256F8242006EB840362B9043B9E421A4602D3C8F8104005E01268043B002AF8D1013CF3E7284600E0002014
:4035400003B0BDE8F08F00002DE9F04F456A95B08246219CCDE9022345B9102000F090FDCAF82400456085600560C560DAF82430196859B15A68012393404A608B60504691
:4035800000F0BBFDDAF8243000221A60039BA04A002BBDBF01232360039B0023BCBF23F000430393DDF80C80A8BF236028F000431B0D1B0593421DD142F20F73209A13600F
:4035C000029B43B9934A944BC8F31300002814BF1846104600E09048229B002B00F04685C37813B100F1080300E0C31C229A136000F03CBDDDE902450022002320462946A5
:4036000001F0F0F8074658B1209A01231360229B002B00F01E8581481860013800F026BD12AB019313AB009322462B46504600F0B7FFC8F30A56049056B1C5F3130343F0D4
:403640007F51204641F44011A6F2FF3611971DE0139B129E1E4406F23243202B0ADD029A06F21240C3F1400322FA00F008FA03F3184304E0C3F12000029B03FA00F0FEF74A
:4036800063FD0123A1F1F871013E11930022644BFEF71CFC58A3D3E90023FEF7CBFD58A3D3E90023FEF714FC044630460D46FEF75BFD55A3D3E90023FEF7BCFD02460B46D6
:4036C00020462946FEF704FC04460D4601F0D2F80022834600232046294601F08DF858B15846FEF741FD02460B462046294601F079F808B90BF1FF3BBBF1160F0DD8DDE932
:403700000223484901EBCB01D1E9000101F092F830B10BF1FF3B002300E00123109300E01090129B9E1B731E079343BFC3F10008002307934FF00008BBF1000F06DB079BF3
:40374000CDF82CB05B440793002705E00023CBEB0808CBF100070B931E9B092B28D8052BC4BF043B1E931E9BC8BF0025A3F10203D8BF0125032B20D8DFE803F0060E0204D4
:40378000012302E0012308E000230A931F9B002B1DDD9946059321E000230A931F9B0BEB030909F10103012B0593B8BF012315E0012500231E930A9501E001230A934FF098
:4037C000FF390022CDF8149012231F9206E04FF001094B46CDF81490CDF87C90DAF8244000226260042101F114029A421CD86268490001326260F6E761436F63A787D23F75
:40380000B3C8608B288AC63FFB799F501344D33F0000F07FCC4A0000D54A0000CB4A00000000F83FE84A00006168504600F030FCDAF8243020601B680693059B0E2B00F275
:403840005B81002D00F05881DDE90234BBF1000FCDE90E3430DD9F4A0BF00F034FEA2B1502EBC303E80618CBCDE908340CD5DDE90E01994B05F00F05D3E90823FEF704FE54
:403880000324CDE9020100E00224934E6DB1E90708D5DDE90801D6E90023FEF7CBFCCDE9080101346D100836F0E7DDE90823DDE90201FEF7E9FD20E0CBF1000505B3DDE98F
:4038C0000E01844B05F00F0203EBC203D3E90023FEF7B0FCCDE902017F4E2D110023022455B1EA0705D5D6E90023FEF7A3FC013401236D100836F3E71BB1CDE9020100E00A
:403900000224109BE3B1DDE902560022734B2846314600F071FF98B1059B8BB1B9F1000F40F3E6800BF1FF330893314600226C4B2846FEF77FFC0134CDE902014E4602E00D
:40394000059ECDF820B02046FEF70EFCDDE90223FEF770FC634B0022FEF7BAFAA1F1507304460C931D46D6B9DDE9020100225E4BFEF7ACFA22460C9BCDE9020100F05AFF75
:40398000002840F03F820C99224601F10043DDE9020100F031FF002840F02B82A8E00A9A4C4B711E002A49D003EBC103D3E9002300204E49FEF768FD22462B46FEF786FA39
:4039C000CDE90C01069CDDE9020100F053FF0546FEF7CAFB02460B46DDE90201FEF776FADDE90C23303504F8015BCDE9020100F003FF002840F01D83DDE9022300203749AB
:403A0000FEF764FADDE90C2300F0F6FE002840F0D180069BE31AB3426ADADDE90C0100222F4BFEF707FC0022CDE90C01DDE902012B4BFEF7FFFBCDE90201C4E703EBC1014C
:403A40002246D1E900012B46FEF7F4FB069BCDE90C011D469C19DDE9020100F00BFF0646FEF782FB02460B46DDE90201FEF72EFA303605F8016BAC42CDE902014FF000029B
:403A800022D11A4BDDE90C01FEF722FA02460B46DDE9020100F0CEFE002840F08B80DDE90C2300201149FEF711FA02460B46DDE9020100F0A1FED8B114F8013C621E302B3C
:403AC00040F0B7821446F7E7054BFEF7B3FBCDE90201C0E7E84A0000C04B00000000F03F0000244000001C40000014400000E03FDDE90E34CDE90234139B002B7CDBBBF163
:403B00000E0F79DCAB4B03EBCB03D3E900671F9B002B14DA059B002B11DC40F06C810022A54B30463946FEF785FBDDE9022300F077FE059D2E46002840F05F8165E1069C94
:403B4000DDE9028932463B4640464946FEF79CFC00F090FE0546FEF707FB32463B46FEF769FB0B46024649464046FEF7AFF905F1300E069B04F801EBC3EB040E059B734527
:403B80002DD102460B46FEF7A3F98046894602460B463046394600F02FFE78B942464B463046394600F01EFE002800F04482EB0704D440E2DDF820B000E01C4614F8012C68
:403BC000631E392A07D1069A9A42F6D1069930220BF1010B0A701A7801321A702BE20022764BFEF727FB002200238046894600F0F9FD0028A6D01EE20A9A002A2BD01E9A1E
:403C0000012A0ADC119A12B103F2334302E0129BC3F136033D46444613E0059B5D1EAF42BFBF0B9BEA1B9B180B93059BB6BF2F467D1B0025002BA7BF4446059BC3EB0804DC
:403C40000023079A01211A4450469844079200F0F3FA064602E03D4644460A9E5CB1079B002B08DDA342A8BF2346079AC3EB0808E41AD31A0793002F1DDD0A9BABB18DB175
:403C800031462A46504600F071FB049A01460646504600F0DAFA04990890504600F02DFA089B04937A1B06D000E03A460499504600F05CFB04900121504600F0BDFA0B9BA6
:403CC00005465BB31A460146504600F04FFB1E9B0546012B18DC029B83B9039BC3F3130373B9039B23F000473F0D3F054FB1079B08F1010801330793012702E0002700E056
:403D0000029F0B9B73B100E000272B6905EB8303186900F044FAC0F1200004E01E9B012BD9DD0B9F0120079B184410F01F0008D0C0F12003042B02DDC0F11C0002E006D0E1
:403D400018461C30079B8044034404440793B8F1000F05DD42460499504600F055FB0490079B002B05DD29461A46504600F04CFB0546109B23B32946049800F096FB002816
:403D80001EDA00230A220499504600F0CDF90A9B0BF1FF3B0490002B00F05F81314600230A22504600F0C0F9B9F1000F06463FDC3BE000BFE84A0000000014400000244080
:403DC000059B002B2BDC1E9B022B28DDDDF81490B9F1000F11D129464B460522504600F0A3F901460546049800F05FFB00280CDC03E0354600E000252E461F9B069C6FEA95
:403E0000030B09E03546DDF820B0069B069A5C1C312313700BF1010B05960026F7E00A9BDDF8149023B9069CB2E01E9B022BCFDC002C05DD31462246504600F0E5FA0646DE
:403E40009FB17168504600F023F90446326906F10C01023292000C30FEF784FF01222146504600F0D1FA059000E00596029B069F03F00103079329460498FFF7D9FA31460B
:403E8000044600F13008049800F00FFB059A02902946504600F025FBC36802463BB901460A90049800F001FB0A9A034600E00123114650460A9300F020F90A9B53B91E9AF6
:403EC00042B9079A32B9B8F1390F2AD0029B002B1CDC1DE0029A002A04DB1BD11E9ACAB9079ABAB9002B13DD01220499504600F08BFA2946049000F0D8FA002803DC07D129
:403F000018F0010F04D0B8F1390F0AD004F131087C1C0CE0002B07F101040BDDB8F1390F03D139233B70013756E008F1010887F800806CE0069B2746E31A4B4504F8018C5D
:403F40003BD000230A220499504600F0EDF8059B04909E424FF00A024FF000033146504604D100F0E1F80646059084E700F0DCF8002306460A220599504600F0D5F8059062
:403F800079E700230A220499504600F0CDF8049029460498FFF74CFA069B00F1300804F8018BE31A4B45ECDB069B0596B9F1010FACBF4B4401331F460026012204995046E4
:403FC00000F022FA2946049000F06FFA002803DC15D118F0010F12D03C4614F8013C621E392B09D1069B934204D10BF1010B3123069A02E01446F0E70133137007E03C466F
:4040000014F8013C621E302B01D11446F8E72946504600F072F8059B6BB12EB19E4203D03146504600F069F80599504600F065F801E0DDF820B00499504600F05EF80023A3
:40404000209A23700BF101031360229B1BB11C6001E008480AE0069808E0B9F1000F3FF7E2AE1E9B022B7FF7DEAEB1E615B0BDE8F08F00BFCA4A0000004870476481FF1F1E
:40408000024B0146186800F0E7BA00BF6081FF1F70B5456A04460E463DB91020FFF7F0FF6062456085600560C560656AEB6843B1636ADB6853F8260078B1026843F826209F
:4040C00017E021220421204600F0B8FA636AE860DB68002BECD1002070BD012101FA06F56A1D9200204600F0A9FA0028F3D04660856000230361C36070BD70B5446A064636
:404100000D463CB91020FFF7BBFF7062446084600460C4603DB1736A6A68DB6853F82210296043F8225070BD2DE9F04106460C460D691F4601F1140E0023DEF800000133B4
:4041400081B202FB0171000C0F0C02FB007089B201EB00419D424FEA10474EF8041BECDCD7B1A3689D4212DB616830460131FFF78FFF8046226904F10C01023292000C305C
:40418000FEF7F0FD21463046FFF7B7FF444604EB850301355F6125612046BDE8F081030C1B0413B90004102300E0002310F07F4F04BF0002083310F0704F04BF00010433DF
:4041C00010F0404F04BF80000233002803DB420003D5581C70471846704720207047036813F007020BD0D90722D49A074BBF5B089B08036003604CBF01200220704799B272
:4042000009B91B0C102213F0FF0F04BF1B0A0832190704BF1B090432990704BF9B080232D90702D45B0805D00132036010467047002070472020704710B50C460121FFF72B
:4042400027FF01224461026110BD2DE9F74F14460A69236988469A42BEBF0B46A0461C46D8F81070D4F81090D8F80830D8F8041007EB09069E42C8BF0131FFF709FF00F17A
:4042800014052B4605EB860C0022634502D243F8042BFAE704F1140208F1140102EB890301EB87070093009B0192934257D9B2F800B0BBF1000F23D08946AE464FF0000825
:4042C00059F8044BBEF800A0A3B20BFB03A34FEA144ADEF8004043444FEA14480BFB0A84F24604EB13449BB243EA04434F454FEA14484AF8043B01D9D646E1E7CEF8048079
:40430000019B0432B3F802A0BAF1000F21D02C4689462B684FF00008B9F800E0B4F802B09BB20AFB0EBEA346F04443EA08434BF8043B59F8043BB4F804E01B0C0AFB03E342
:404340004F4503EB18434FEA134801D95C46E3E763600435A7E75CF8043D13B9013E002EF9DC066103B0BDE8F08F00002DE9F843154612F0030206460F4607D0214C013A48
:40438000002354F82220FFF7CFFE0746AD1036D0746A3CB91020FFF773FE7062446084600460C460D6F82480D8F808404CB940F271213046FFF740FF04460023C8F80800FA
:4043C00003604FF00008EB070AD5394622463046FFF73BFF814639463046FFF78EFE4F466D100CD0206808B10446ECE7224621463046FFF72AFF2060C0F80080F4E73846B6
:40440000BDE8F883B04B00002DE9F0470C460746914626694FEA621A56444968A368751CAB4202DA01315B00FAE73846FFF730FE002380461A4600F11401534503DA41F89D
:4044400023200133F9E72AEAEA73206901EB830319F01F0904F1140101EB800E14D0C9F1200C002208689A4600FA09F0024343F8042B51F8042B8E4522FA0CF2F2D8CAF8F5
:40448000042042B1B51C06E0043B51F8042B8E4543F8042FF9D8013D3846C8F810502146FFF72BFE4046BDE8F08703690A6910B59B1A11D192001430143183180A4453F8D7
:4044C000044D52F8041D8C4202D007D3012010BD9842F4D3002010BD184610BD4FF0FF3010BD2DE9F8430C460746114620461546FFF7DBFF061E08D131463846FFF7C8FD1F
:40450000012303614661BDE8F883BCBF23462C4638466168BABF1D4601260026FFF7B8FD2B69C660266905F1140904F1140101EB860709EB830800F114054FF0000C51F8BF
:40454000042B59F8044B93B29C44A3B2240CC3EB0C03C4EB124202EB23429BB24FEA224CC84543EA02428E4645F8042BE7D8BE450ED25EF8041B8AB26244131403EB11439C
:4045800092B242EA03424FEA234C45F8042BEEE755F8043D0BB9013EFAE70661BDE8F8832DE9F3411C4601219046089E099DFFF76FFDC4F31302C4F30A5407460CB142F4F1
:4045C00080120192B8F1000F19D002A840F8088DFFF705FE009B48B1019AC0F1200102FA01F10B43C2407B61019200E07B61019B002B14BF02210121BB61396107E001A8F6
:40460000FFF7EDFD019B01217B613961203034B1A4F2334404443460C0F1350009E0A0F2324007EB810330601869FFF7B8FDC0EB41102860384602B0BDE8F08138B502FB8F
:4046400001F4214600F008F8054618B122460021FEF793FB284638BD70B5CD1C25F0030508350C2D38BF0C25002D064601DBA94202D90C23336046E000F05CF8234B1C6869
:404680001A462146A1B10B685B1B0ED40B2B03D90B60CC18CD501EE08C420BBF63684B681360636018BF0C4615E00C464968E9E7174C23681BB9304600F02CF82060294622
:4046C000304600F027F8431C18D0C41C24F00304A0420DD12560304600F02DF804F10B00231D20F00700C31A0ED05A42E25070BD211A304600F00EF80130EBD10C233360C0
:40470000304600F018F8002070BD00BFC881FF1FC481FF1F38B5064C0023054608462360FBF78EFF431C02D1236803B12B6038BDA482FF1F704770474FF0FF3C06E000BF6E
:404740004FF0010C02E000BF4FF0010C4DF804CD4FEA410C7FEA6C5C4FEA430C18BF7FEA6C5C1BD001B050EA410C0CBF52EA430C91EA030F02BF90EA020F0020704710F179
:40478000000F91EA030F58BF994208BF90422CBFD8176FEAE37040F0010070474FEA410C7FEA6C5C02D150EA013C07D14FEA430C7FEA6C5CD6D152EA033CD3D05DF8040BA9
:4047C000704700BF8446104662468C461946634600E000BF01B5FFF7B7FF002848BF10F1000F01BD4DF808EDFFF7F4FF0CBF012000205DF808FB00BF4DF808EDFFF7EAFF44
:4048000034BF012000205DF808FB00BF4DF808EDFFF7E0FF94BF012000205DF808FB00BF4DF808EDFFF7CEFF94BF012000205DF808FB00BF4DF808EDFFF7C4FF34BF0120C4
:4048400000205DF808FB00BF4FEA410C7FEA6C5C02D150EA013C0AD14FEA430C7FEA6C5C02D152EA033C02D14FF0000070474FF0010070474FEA410212F5001215D211D5FC
:404880006FF47873B3EB625212D94FEAC12343F0004343EA505311F0004F23FA02F018BF404270474FF00000704750EA013005D111F0004008BF6FF0004070474FF00000C7
:4048C000704700BF00000000DB0F493F3863ED3EB0DB7A3ED5ADFE3DDEAA7F3DAEEAFF3CABFA7F3CABFEFF3BABFF7F3BEBFFFF3AFBFF7F3AFFFFFF3900008039000000394E
:404900000000803800000038205100405000C0510040100000000140001000140140000800400140000A004C0140000200500140200000003031323334353637383941421C
:404940004344454600000000010000005049000001000000944A00000000000000000000010000006849000001000000504A0000030000009449000000000000000000007F
:4049800000000000000000000000000090490000020A000000008103080002000100820240000A000100030240000A0002030000040309042C03430079007000720065001A
:4049C000730073002000530065006D00690063006F006E0064007500630074006F007200100355005300420055004100520054003803430044004300200043006F006D00D5
:404A00006D0075006E00690063006100740069006F006E00200049006E007400650072006600610063006500260343004400430020004400610074006100200049006E002A
:404A400074006500720066006100630065000000090243000201018032090400000102020103052400100104240202052406000105240100010705810308000A09040100D1
:404A8000020A0000040705820240000007050302400000001201000202000008B40432F20100010280010000666D6F646600000000000000000000804300494E4600696EC2
:404AC00066004E414E006E616E003000496E66696E697479004E614E00504F534958002E0000000000000000000000000000F03F00000000000024400000000000005940D2
:404B00000000000000408F40000000000088C34000000000006AF8400000000080842E4100000000D01263410000000084D797410000000065CDCD41000000205FA002426A
:404B4000000000E876483742000000A2941A6D42000040E59C30A2420000901EC4BCD64200003426F56B0C430080E03779C3414300A0D8855734764300C84E676DC1AB43C2
:404B8000003D9160E458E143408CB5781DAF154450EFE2D6E41A4B4492D54D06CFF08044F64AE1C7022DB544B49DD9794378EA4405000000190000007D0000000000000051
:404BC0000080E03779C34143176E05B5B5B89346F5F93FE9034F384D321D30F94877825A3CBF737FDD4F1575F8B500BFF8BC08BC9E4670474D000000BD060000F8B500BF3B
:404C0000F8BC08BC9E46704729000000204C0000C880FF1FD8000000080100000000000000000000A882FF1F00C2010000000800C201000000080000A120000000000200E4
:404C4000000000000000E02EC05D00001800000000366E01010000000000000000000000000000000000000000000000000000000000000000000000B84A00000000000049
:404C800000000000000000000000000000000000000000000000000000000000000000000000000000000000000000000000000000000000000000000081FF1FDF4A00002C
:404CC000E04A0000E04A0000E04A0000E04A0000E04A0000E04A0000E04A0000E04A0000E04A0000FFFFFFFFFFFFFFFFFFFFFFFFFFFF000000000000000000000000000048
:404D00000000000000000000000000000000000000000000000000000000000000000000000000000000000000000000000000000000000000000000000000000000000073
:404D40000000000000000000000000000000000000000000000000000000000000000000000000000000000000000000000000000000000000000000000000000000000033
:404D800000000000000000000000000000000000000000000000000000000000000000000000000000000000000000000000000000000000000000000000000000000000F3
:404DC00000000000000000000000000000000000000000000000000000000000000000000000000000000000000000000000000000000000000000000000000000000000B3
:020000040003F7
:0200000480007A
:4000000001450040015200400217014002190140034001400341014003420140034301400447014004480140024C0140015101407E027C40EA02EE0AEA02EE0A3381364072
:40004000CC709F01A640A7809F01A640A7809F01A640A78008080B040F40C20EAE40AF81EA40EE50AC08AF44002A000000000000000001004000000000000000C0000000A7
:40008000000B0B000000000000000000000000000000000000000000000000000000000000000000000000000000000000000000000000000000000000000000000000002A
:4000C0000000000000000000000000000000000000000000000000000000000000000000000000000000000000000000000000000000000000000000000000000000000000
:4001000000000000000000000000000000000000000000000000000000000000000000000000000000000000000000000000000000000000000000000000000000000000BF
:40014000000000000000000000000000000000000000000000000000000000000000000000000000000000000000000000000000000000000000000000000000000000007F
:40018000000000000000000000000000000000000000000000000000000000000000000000000000000000000000000000000000000000000000000000000000000000003F
:0200000490006A
:0400000000004005B7
:0200000490105A
:04000000BC90ACAF55
:0200000490303A
:02000000CD50E1
:0200000490402A
:4000000000000000000000000000000000000000000000000000000000000000000000000000000000000000000000000000000000000000000000000000000000000000C0
:400040000000000000000000000000000000000000000000000000000000000000000000000000000000000000000000000000000000000000000000000000000000000080
:400080000000000000000000000000000000000000000000000000000000000000000000000000000000000000000000000000000000000000000000000000000000000040
:4000C0000000000000000000000000000000000000000000000000000000000000000000000000000000000000000000000000000000000000000000000000000000000000
:0200000490501A
:0C00000000012E12306900012E2FFDB906
:00000001FF